S01700004763634170706C69636174696F6E312E737265635B
S11300000C942A000C943C000C943C000C943C008E
S11300100C943C000C943C000C943C000C943C006C
S11300200C943C000C943C000C943C000C943C005C
S11300300C943C000C943C000C943C000C943C004C
S11300400C943C000C943C000C943C000C943C003C
S11300500C943C0011241FBECFE5D8E0DEBFCDBF19
S113006020E0A0E6B0E001C01D92A136B207E1F79E
S11300700E946D000C94A1000C94000081E00E9489
S11300807200109260008FEF84BB809160008CBF7F
S113009084E683BF82E085BF14BE81B3806881BBE0
S11300A087B3886087BB80E00E949C00813031F474
S11300B080916000865F8093600009C0823039F4CB
S11300C080916000882319F08A508093600081E059
S11300D085BB809160008CBFE6CF0E943E0080E02B
S11300E090E00895811113C087B3806187BB87B303
S11300F0806287BB87B3806887BB87B38F7B87BBEE
S113010088B3806188BB8DB180618DB911C08130A5
S113011079F487B38F7E87BB87B38F7D87BB87B323
S11301208F7787BB87B3806487BB8DB18F7E8DB992
S11301308DB180648DB908958FB9779BFECF8FB14F
S10901400895F894FFCFBE
S9030000FC
