:100000000C942A000C943C000C943C000C943C0092
:100010000C943C000C943C000C943C000C943C0070
:100020000C943C000C943C000C943C000C943C0060
:100030000C943C000C943C000C943C000C943C0050
:100040000C943C000C943C000C943C000C943C0040
:100050000C943C0011241FBECFE5D8E0DEBFCDBF1D
:1000600020E0A0E6B0E001C01D92A036B207E1F7A3
:100070000E943E000C948F000C9400000E944300EC
:1000800080E090E0089580E00E945C0011BA0E9438
:100090008B00869902C080E001C081E0879982E0F0
:1000A0000E9486002FEF86E191E121508040904030
:1000B000E1F700C00000EBCF811113C087B380616E
:1000C00087BB87B3806287BB87B3806887BB87B3F2
:1000D0008F7B87BB88B3806188BB8DB180618DB910
:1000E00011C0813079F487B38F7E87BB87B38F7D52
:1000F00087BB87B38F7787BB87B3806487BB8DB19E
:100100008F7E8DB98DB180648DB908958FB9779B3D
:10011000FECF8FB1089588B38F7E88BB0895F89481
:02012000FFCF0F
:00000001FF
